:100000000C94DB000C9403010C9403010C94030189
:100010000C9403010C9403010C9403010C94030150
:100020000C9403010C9403010C94A4050C94160683
:100030000C9403010C9403010C9403010C94030130
:100040000C9403010C9403010C9403010C94030120
:100050000C9403010C9403010C9403010C945A05B5
:100060000C9403010C9403010C9403010C94030100
:100070000C9403010C9403010C9403010C940301F0
:100080000C9403010C9403010C9403010C940301E0
:100090000C9403010C9403010C9403010C940301D0
:1000A0000C9403010C9403010C9403012302260217
:1000B000150219021D024702470247022A022E02B8
:1000C000320238023C0247024202080B00020202DE
:1000D00001000904000001020200000524001001D3
:1000E0000524010101042402060524060001070578
:1000F000810310004009040100020A000000070506
:1001000002024000000705830240000004030904C6
:1001100012010002EF02014041234180000101026F
:10012000030141726475696E6F204C4C430041724B
:100130006475696E6F2059756E0000000002000939
:100140000F0000030401000C00000000000000008C
:100150000000000000000000000000000025002852
:10016000002B002E00310000000000240027002A90
:10017000002D0030000404040404030405020202FC
:100180000204030202020206060606060604040230
:100190000202040404080201104080401020408044
:1001A00040800802040180402010020110801020CD
:1001B00040402000540811241FBECFEFDAE0DEBF1C
:1001C000CDBF11E0A0E0B1E0E0E6F3E102C00590B0
:1001D0000D92A034B107D9F721E0A0E4B1E001C04D
:1001E0001D92A73CB207E1F710E0CBEDD0E004C0D0
:1001F0002197FE010E94A309CA3DD107C9F70E94B9
:1002000086080C94AE090C94000090E0FC01EC56BA
:10021000FE4F2491FC01EB58FE4F8491882399F006
:1002200090E0880F991FFC01E959FE4FA591B49108
:10023000FC01E75AFE4F859194918FB7F894EC91A9
:10024000E22BEC938FBF089520915E01211103C032
:100250008FEF9FEF08955FB7F89422E02093E900B5
:100260002091F20030E01216130614F421E030E081
:10027000422FFC0184E6415038F0289880935D01BC
:100280009091F1009193F7CF2115310521F08091E4
:10029000F200882319F05FBFC90108958BE68093AF
:1002A000E800F9CF2FB7F89483E08093E9009091AC
:1002B000E800892F807295FF04C09091F20080E4DD
:1002C000891B2FBF08958091550181110DC082E0D7
:1002D0008093510184E08093520110925401109256
:1002E000530181E08093550181E591E00895CF931A
:1002F000DF931F92CDB7DEB76983DC01ED91FC91EE
:100300000280F381E02D41E050E0BE016F5F7F4F3E
:1003100009950F90DF91CF91089583E08093E900D4
:100320008091F200882319F08AE38093E800089511
:100330000E94520190E00895CF93DF931F92CDB7B2
:10034000DEB7FC018485958597FD05C02FEF3FEF53
:10035000358724870BC0CE0101960E9424010197A6
:1003600019F4898190E002C08FEF9FEF0F90DF9129
:10037000CF9108950F931F93CF93DF931F92CDB723
:10038000DEB78C01FC018485958597FF0EC0CE01F8
:1003900001960E942401019719F4898190E002C01E
:1003A0008FEF9FEFF80195878487F8018485958505
:1003B0000F90DF91CF911F910F910895FC018485DB
:1003C000958597FD0BC09FB7F89482E08093E90074
:1003D0008091F2009FBF90E0019608959FB7F89436
:1003E00082E08093E9008091F2009FBF90E0089541
:1003F000362F90E0FC01E65CFE4F4491FC01EC5688
:10040000FE4F2491FC01EB58FE4F8491882309F4A0
:1004100052C04423E1F150E0FA013197EF30F10589
:10042000B0F5EA5AFF4F0C94A309909180009F7792
:1004300007C0909180009F7D03C090918000977FBE
:100440009093800024C094B59F7702C094B59F7D9F
:1004500094BD1DC0909190009F7707C0909190002F
:100460009F7D03C090919000977F909390000FC064
:100470009091C0009F7703C09091C0009F7D9093A2
:10048000C00005C09091C200977F9093C200E82FF2
:10049000F0E0EE0FFF1FE75AFE4FA591B4919FB712
:1004A000F894311104C08C912095282302C0EC915E
:1004B0002E2B2C939FBF08953FB7F89480914B014A
:1004C00090914C01A0914D01B0914E0126B5A89B91
:1004D00005C02F3F19F00196A11DB11D3FBFBA2FD6
:1004E000A92F982F8827820F911DA11DB11DBC0136
:1004F000CD0142E0660F771F881F991F4A95D1F7FB
:100500000895CF92DF92EF92FF920E945C026B01FE
:100510007C010E945C02DC01CB018C199D09AE09B3
:10052000BF09883E9340A105B10598F3FF90EF9075
:10053000DF90CF9008958F929F92AF92BF92CF920B
:10054000DF92EF92FF920F931F93CF93DF936C0193
:100550007B018A0180910B01882309F458C08091A6
:100560005E01882309F453C08091500180FF05C0CB
:100570008091E00082608093E000E801B12C8AEF76
:10058000A82E93E0892E2AE3922E209711F4BB2007
:10059000B9F10E945201811106C0AA94AA20B9F1B2
:1005A0000E948102F2CF282F30E0C217D3070CF44B
:1005B0008C2F9FB7F8948092E9002091E80025FFE6
:1005C0001DC0282F30E0C21BD30BF701815020F053
:1005D00041914093F100FACFE20EF31EBB2019F0D7
:1005E0009092E8000AC08091E80085FD07C09092D3
:1005F000E800BB24B394209709F0B12C9FBFC5CF6E
:100600005D9884E680934F011016110644F081E056
:1006100090E0F6019383828380E090E001C0C801FE
:10062000DF91CF911F910F91FF90EF90DF90CF90CE
:10063000BF90AF909F908F9008954091420150914C
:100640004301209140013091410142175307B4F416
:100650009091E8009570E1F39091E80092FD19C047
:100660008093F100809142019091430101968F7334
:100670009927892B19F48EEF8093E800809142012D
:10068000909143010196909343018093420181E050
:10069000089580E00895DF92EF92FF920F931F93E9
:1006A000CF93DF93D82EF92EE42E062F10E0C80149
:1006B0000196880F0E941D0383E00E941D03CD2D2B
:1006C000DF2D0C0F1D1FC017D10789F0E7FE03C0F7
:1006D000FE01849101C088810E941D03F82E80E0F4
:1006E0000E941D038F2121968111EDCF01C081E071
:1006F000DF91CF911F910F91FF90EF90DF900895C0
:10070000DF92EF92FF920F931F93CF93DF93D82E38
:100710008A017B01E40EF51EEB01CE15DF0571F0B9
:10072000D7FE03C0FE01849101C088810E941D0391
:1007300021968111F2CF8FEF9FEF01C0C801DF91A9
:10074000CF911F910F91FF90EF90DF9008950F933D
:100750001F93CF93DF931F92CDB7DEB782E08983DB
:1007600042E450E06AEC70E080E80E9480030E945E
:100770006301DC0112960D911C911397011511056F
:1007800089F0D801ED91FC910280F381E02DBE014A
:100790006F5F7F4FC801099597FD04C0F801008580
:1007A0001185ECCF89810F90DF91CF911F910F912F
:1007B0000895615030F02091F100FC0120830196F2
:1007C000F8CF289884E680935D010895CF92DF9258
:1007D000EF92FF920F931F93CF93DF936C017A01F7
:1007E0008B01C0E0D0E0CE15DF0581F0D8016D911E
:1007F0008D01D601ED91FC910190F081E02DC601B3
:100800000995892B11F02196EECF7E01C701DF916A
:10081000CF911F910F91FF90EF90DF90CF900895AF
:10082000CF93DF93EC0160E08E810E94F80161E0DC
:100830008E810E94F80160E08E810E94F8018BE8B1
:1008400091E00197F1F7DF91CF910895CF92DF9278
:10085000EF92FF920F931F93CF93DF936C017C0174
:1008600087E0E80EF11CC0E0D0E0062F10E0B801F0
:100870000C2E02C0759567950A94E2F76170F70136
:1008800081917F010E94F8012196C430D10579F74A
:10089000C601DF91CF911F910F91FF90EF90DF90F4
:1008A000CF900C941004CF92DF92EF92FF920F93AF
:1008B0001F93CF93DF93EC01F62E642F8C810E945F
:1008C000F8018D818F3F19F060E00E94F8018F855B
:1008D0000F2D10E084FF25C06E0187E0C80ED11CEB
:1008E000E12CF12CB8010E2C02C0759567950A9485
:1008F000E2F76170F60181916F010E94F801FFEF4C
:10090000EF1AFF0A88E0E816F10461F7CE01DF91E3
:10091000CF911F910F91FF90EF90DF90CF900C94AB
:100920001004B80184E0759567958A95E1F7CE01CA
:100930000E9426046F2DCE01DF91CF911F910F9160
:10094000FF90EF90DF90CF900C94260440E0682F4A
:100950008FEA91E00C945304CF93DF93823028F018
:100960009091BE0198609093BE018093C201109255
:10097000C30180E48093C40180E18093C50180E5D8
:100980008093C6018091B3010E9405018091B4015A
:100990008F3F11F00E9405018091B5010E94050171
:1009A000CFEAD1E09E012F5A31408091BE0184FDF3
:1009B00003C084E090E002C088E090E02196281710
:1009C000390724F48E810E940501ECCF8BE39DE072
:1009D0000197F1F760E08091B3010E94F80160E0B7
:1009E0008091B5010E94F8018091B4018F3F19F008
:1009F00060E00E94F8018091BE0184FD20C063E0A8
:100A00008FEA91E00E942604CBE4D6E4CE01019760
:100A1000F1F763E08FEA91E00E9426042197F1F755
:100A200063E08FEA91E00E94260483E592E001975B
:100A3000F1F762E08FEA91E00E94260415C080621F
:100A40000E94A6048BE496E40197F1F78091BE0121
:100A500080620E94A60483E592E00197F1F78091FD
:100A6000BE0180620E94A6048091BE0180620E9445
:100A7000A60484E08093BF018CE00E94A60481E07C
:100A80000E94A6048BE39FE10197F1F782E0809337
:100A9000C00186E0DF91CF910C94A60441E00E9452
:100AA000530481E090E00895089580E090E0089577
:100AB0000E94A9091F920F920FB60F9211242F9333
:100AC0003F938F939F93AF93BF93809147019091F2
:100AD0004801A0914901B0914A013091460123E0BB
:100AE000230F2D3720F40196A11DB11D05C026E866
:100AF000230F0296A11DB11D20934601809347014B
:100B000090934801A0934901B0934A0180914B0111
:100B100090914C01A0914D01B0914E010196A11D03
:100B2000B11D80934B0190934C01A0934D01B09364
:100B30004E01BF91AF919F918F913F912F910F9057
:100B40000FBE0F901F9018951F920F920FB60F9225
:100B500011248F939F938091E1009091E100937F06
:100B60009093E10083FF0FC01092E90091E0909311
:100B7000EB001092EC0092E39093ED0010925E0176
:100B800098E09093F00082FF20C093E09093E900FA
:100B90009091F200992319F09AE39093E8009091D4
:100BA0004F01992339F090914F01915090934F014B
:100BB000992389F190915D01992339F090915D011C
:100BC000915090935D01992341F184FF10C0809171
:100BD000E2008E7E81608093E2008091E1008F7E52
:100BE0008093E100809150018E7E806111C080FF72
:100BF00016C08091E2008E7E80618093E200809139
:100C0000E1008E7E8093E100809150018E7E8160B4
:100C10008093500104C05D9ACDCF289AD6CF9F9182
:100C20008F910F900FBE0F901F9018951F920F92EB
:100C30000FB60F921124CF92DF92EF92FF920F9393
:100C40001F932F933F934F935F936F937F938F9354
:100C50009F93AF93BF93EF93FF93CF93DF93CDB762
:100C6000DEB76C97DEBFCDBF1092E9008091E8003F
:100C700083FFFBC168E0CE0145960E94D90382EF55
:100C80008093E8008D8987FF05C09091E80090FF70
:100C9000FCCF03C09EEF9093E800982F907609F068
:100CA000C6C09E894F89588D2F89F88C91110CC030
:100CB000803829F4809145018093F10002C01092A0
:100CC000F1001092F10045C1913051F4811141C100
:100CD0004130510509F03DC1809145018D7F0BC028
:100CE000933061F4811135C14130510509F031C1B2
:100CF000809145018260809345012BC1953049F474
:100D00008091E80080FFFCCF822F80688093E30011
:100D100020C1963009F05EC00B8D1C8D22E0109230
:100D2000E9001092430110924201F21232C0109277
:100D30004101109240010E94A70399E0BE016F5F3C
:100D40007F4FDB01E92F1D92EA95E9F79983FA823B
:100D500091E09E8390EA98879AEF998720914201CB
:100D600030914301275F3F4F3C832B838D8310924B
:100D7000E900109243011092420110934101009347
:100D8000400149E050E080E00E9480030E94A703F8
:100D9000E0C010934101009340010E946301DC0117
:100DA00012960D911C9113970115110509F4BBC002
:100DB000D801ED91FC910480F581E02DBE016B5EC0
:100DC0007F4FC8010995009709F0C7C0F801008559
:100DD0001185EACF973009F445C1983021F481E0BC
:100DE0008093F100B6C0993009F0B3C0837009F068
:100DF00039C1EDE0F1E081E031E096E3208121119D
:100E000009C08EE78093EA001092EA008F898093F0
:100E10005E019FC08093E9003093EB002191209305
:100E2000EC009093ED008F5F873041F7EACF8B8D18
:100E30009C8D1092E9001092430110924201909310
:100E4000410180934001898D811153C08E899D8914
:100E5000913A49F4813209F005C147E050E064E07D
:100E600071E080E0BBC0913209F0FCC0833269F4CC
:100E70008F89988DA0E0B0E08093000190930101EC
:100E8000A0930201B093030164C0803269F48091A1
:100E9000E80082FFFCCF67E084E091E00E94D90384
:100EA0008BEF8093E80055C0823209F052C08F89E1
:100EB00080930B01EEEFFFE7859194918B3F9C4D62
:100EC00019F0E0E0F8E002C0EEEFFAE080910401F2
:100ED00090910501A0910601B0910701803B9440DB
:100EE000A105B10509F09EC080910B0180FF79C07A
:100EF00099C00E946301FC01028113810115110553
:100F000009F4B0C0D801ED91FC910190F081E02D81
:100F1000BE016B5E7F4FC801099581111AC0F801AF
:100F200000851185EBCFF1E0FF1609F44EC0F3E028
:100F3000FF1298C08F89882309F44AC0823089F44F
:100F400040E86BE08EE291E00E944B03882309F4B5
:100F500089C08EEF8093E80088C018161906CCF37C
:100F600081C0813029F440E86BE082E291E0ECCF6F
:100F7000833009F077C00E946301DC011296ED9086
:100F8000FC9013978E010F5F1F4F6801E114F1046D
:100F900079F0D701ED91FC910680F781E02DB80141
:100FA000C7010995080F111DF701E084F184EECF08
:100FB000D8011C92F60101900020E9F73197BF019A
:100FC0006C197D0940E0C601BFCF60E171E002C04D
:100FD0006CE071E0FB01449150E080E80E948003E6
:100FE000B8CFEE3F2AE0F20751F080819181873738
:100FF000A7E79A0721F09093FF0A8093FE0A87E7FC
:1010000097E79183808380916000809344019BE007
:1010100088E10FB6F894A895809360000FBE909376
:10102000600097CF808191818737974709F091CFF2
:10103000A895809160008861809360008091440150
:1010400080936000EE3FBAE0FB0739F08091FE0A22
:101050009091FF0A918380837CCF1092FF0A1092B7
:10106000FE0A77CF81E28093EB006C960FB6F8947E
:10107000DEBF0FBECDBFDF91CF91FF91EF91BF914A
:10108000AF919F918F917F916F915F914F913F9120
:101090002F911F910F91FF90EF90DF90CF900F90C5
:1010A0000FBE0F901F901895EFE5F1E013821282AA
:1010B00088EE93E0A0E0B0E084839583A683B783B5
:1010C00087E191E0918380838FEF9FEF95878487FD
:1010D000EFEAF1E01382128289E291E0918380834A
:1010E0008CE084838FEF85838BE0868385E0878324
:1010F00084E0808783E0818782E08287138614867C
:1011000015861686178681E00C94AC04CF93DF9386
:10111000CDB7DEB7A1970FB6F894DEBF0FBECDBF37
:10112000789484B5826084BD84B5816084BD85B5C2
:10113000826085BD85B5816085BD80916E008160CE
:1011400080936E0010928100809181008260809374
:101150008100809181008160809381008091800076
:1011600081608093800080919100826080939100E3
:1011700080919100816080939100809190008160C6
:10118000809390008091C10084608093C100809121
:10119000C10082608093C1008091C1008160809312
:1011A000C1008091C30081608093C3008091C00022
:1011B00082608093C0008091C20081608093C200F1
:1011C00080917A00846080937A0080917A008260B6
:1011D00080937A0080917A00816080937A00809178
:1011E0007A00806880937A0010925E011092450127
:1011F000109250018091D70081608093D70080EADF
:101200008093D80089B5806189BD89B5826089BD28
:1012100009B400FEFDCF0E9481028091D8008F7C2E
:1012200080618093D8008091E000807F8093E0000F
:101230008091E1008E7E8093E1008DE08093E2005A
:10124000559A209A82E00E94AC044DE050E061E3A0
:1012500071E08FEA91E00E94E60388EEC82E83E0F9
:10126000D82EE12CF12C9AE0492E512C612C712CB6
:1012700020E0A22E20E0B22EE091C201E23010F474
:10128000E15001C0E1E0F0E0E155FE4F8489806863
:101290000E94A6042FB7F89460914701709148010D
:1012A0008091490190914A012FBFA70196010E94A8
:1012B000810919A28E010F5D1F4FCA01B901A30157
:1012C00092010E948109605DF80162938F012115EE
:1012D00031054105510589F7309761F001900020F3
:1012E000E9F73197AF01401B510BB8018FEA91E04C
:1012F0000E94E603A114B10409F4BECF0E940000CD
:10130000BBCFA1E21A2EAA1BBB1BFD010DC0AA1F59
:10131000BB1FEE1FFF1FA217B307E407F50720F05E
:10132000A21BB30BE40BF50B661F771F881F991FD9
:101330001A9469F760957095809590959B01AC0122
:10134000BD01CF010895EE0FFF1F0590F491E02D30
:10135000099481E090E0F8940C94AE09F894FFCFE2
:10136000FFFFFFFF00E100000000000000C18081DE
:101370000000000000000077019B0298018D01DE53
:10138000019C01BA01000000004E05E6035505541A
:101390000568656C6C6F2C20776F726C642100009F
:00000001FF
